{
  "contractName": "LiveDouble",
  "abi": [
    {
      "constant": true,
      "inputs": [],
      "name": "ticketPrice",
      "outputs": [
        {
          "internalType": "uint256",
          "name": "",
          "type": "uint256"
        }
      ],
      "payable": false,
      "stateMutability": "view",
      "type": "function"
    },
    {
      "constant": true,
      "inputs": [],
      "name": "minRounDuration",
      "outputs": [
        {
          "internalType": "uint256",
          "name": "",
          "type": "uint256"
        }
      ],
      "payable": false,
      "stateMutability": "view",
      "type": "function"
    },
    {
      "constant": true,
      "inputs": [],
      "name": "minDeposit",
      "outputs": [
        {
          "internalType": "uint256",
          "name": "",
          "type": "uint256"
        }
      ],
      "payable": false,
      "stateMutability": "view",
      "type": "function"
    },
    {
      "constant": true,
      "inputs": [],
      "name": "oraclizeGasLimit",
      "outputs": [
        {
          "internalType": "uint256",
          "name": "",
          "type": "uint256"
        }
      ],
      "payable": false,
      "stateMutability": "view",
      "type": "function"
    },
    {
      "constant": true,
      "inputs": [
        {
          "internalType": "address",
          "name": "",
          "type": "address"
        }
      ],
      "name": "userAccounts",
      "outputs": [
        {
          "internalType": "bool",
          "name": "isExist",
          "type": "bool"
        },
        {
          "internalType": "uint256",
          "name": "balance",
          "type": "uint256"
        },
        {
          "internalType": "uint256",
          "name": "depositTotal",
          "type": "uint256"
        },
        {
          "internalType": "uint256",
          "name": "winTotal",
          "type": "uint256"
        },
        {
          "internalType": "uint256",
          "name": "gamesTotal",
          "type": "uint256"
        }
      ],
      "payable": false,
      "stateMutability": "view",
      "type": "function"
    },
    {
      "constant": true,
      "inputs": [],
      "name": "drawInProcess",
      "outputs": [
        {
          "internalType": "bool",
          "name": "",
          "type": "bool"
        }
      ],
      "payable": false,
      "stateMutability": "view",
      "type": "function"
    },
    {
      "constant": false,
      "inputs": [
        {
          "internalType": "bool",
          "name": "newStatus",
          "type": "bool"
        }
      ],
      "name": "setEnable",
      "outputs": [],
      "payable": false,
      "stateMutability": "nonpayable",
      "type": "function"
    },
    {
      "constant": true,
      "inputs": [],
      "name": "commissionPercent",
      "outputs": [
        {
          "internalType": "uint256",
          "name": "",
          "type": "uint256"
        }
      ],
      "payable": false,
      "stateMutability": "view",
      "type": "function"
    },
    {
      "constant": true,
      "inputs": [],
      "name": "development",
      "outputs": [
        {
          "internalType": "bool",
          "name": "",
          "type": "bool"
        }
      ],
      "payable": false,
      "stateMutability": "view",
      "type": "function"
    },
    {
      "constant": true,
      "inputs": [],
      "name": "percentMax",
      "outputs": [
        {
          "internalType": "uint256",
          "name": "",
          "type": "uint256"
        }
      ],
      "payable": false,
      "stateMutability": "view",
      "type": "function"
    },
    {
      "constant": true,
      "inputs": [
        {
          "internalType": "uint256",
          "name": "",
          "type": "uint256"
        }
      ],
      "name": "rounds",
      "outputs": [
        {
          "internalType": "uint256",
          "name": "ticketsTotal",
          "type": "uint256"
        },
        {
          "internalType": "uint256",
          "name": "ticketPrice",
          "type": "uint256"
        },
        {
          "internalType": "uint256",
          "name": "startBlock",
          "type": "uint256"
        },
        {
          "internalType": "uint256",
          "name": "endBlock",
          "type": "uint256"
        },
        {
          "internalType": "uint256",
          "name": "winnerIndex",
          "type": "uint256"
        }
      ],
      "payable": false,
      "stateMutability": "view",
      "type": "function"
    },
    {
      "constant": true,
      "inputs": [],
      "name": "owner",
      "outputs": [
        {
          "internalType": "address payable",
          "name": "",
          "type": "address"
        }
      ],
      "payable": false,
      "stateMutability": "view",
      "type": "function"
    },
    {
      "constant": true,
      "inputs": [],
      "name": "commissionWalet",
      "outputs": [
        {
          "internalType": "address payable",
          "name": "",
          "type": "address"
        }
      ],
      "payable": false,
      "stateMutability": "view",
      "type": "function"
    },
    {
      "constant": true,
      "inputs": [],
      "name": "currentRoundNumber",
      "outputs": [
        {
          "internalType": "uint256",
          "name": "",
          "type": "uint256"
        }
      ],
      "payable": false,
      "stateMutability": "view",
      "type": "function"
    },
    {
      "constant": false,
      "inputs": [
        {
          "internalType": "address payable",
          "name": "newOwner",
          "type": "address"
        }
      ],
      "name": "transferOwnership",
      "outputs": [],
      "payable": false,
      "stateMutability": "nonpayable",
      "type": "function"
    },
    {
      "constant": true,
      "inputs": [],
      "name": "maxTotalJp",
      "outputs": [
        {
          "internalType": "uint256",
          "name": "",
          "type": "uint256"
        }
      ],
      "payable": false,
      "stateMutability": "view",
      "type": "function"
    },
    {
      "inputs": [
        {
          "internalType": "bool",
          "name": "isDevelopmentNetwork",
          "type": "bool"
        }
      ],
      "payable": true,
      "stateMutability": "payable",
      "type": "constructor"
    },
    {
      "payable": true,
      "stateMutability": "payable",
      "type": "fallback"
    },
    {
      "anonymous": false,
      "inputs": [
        {
          "indexed": true,
          "internalType": "address",
          "name": "player",
          "type": "address"
        },
        {
          "indexed": false,
          "internalType": "uint256",
          "name": "value",
          "type": "uint256"
        },
        {
          "indexed": false,
          "internalType": "uint256",
          "name": "tickets",
          "type": "uint256"
        },
        {
          "indexed": false,
          "internalType": "uint256",
          "name": "deposited",
          "type": "uint256"
        }
      ],
      "name": "Deposit",
      "type": "event"
    },
    {
      "anonymous": false,
      "inputs": [
        {
          "indexed": true,
          "internalType": "address",
          "name": "player",
          "type": "address"
        },
        {
          "indexed": false,
          "internalType": "uint256",
          "name": "value",
          "type": "uint256"
        }
      ],
      "name": "Withdraw",
      "type": "event"
    },
    {
      "anonymous": false,
      "inputs": [
        {
          "indexed": false,
          "internalType": "uint256",
          "name": "roundNumber",
          "type": "uint256"
        }
      ],
      "name": "StartDraw",
      "type": "event"
    },
    {
      "anonymous": false,
      "inputs": [
        {
          "indexed": false,
          "internalType": "uint256",
          "name": "roundNumber",
          "type": "uint256"
        },
        {
          "indexed": false,
          "internalType": "address payable",
          "name": "winner",
          "type": "address"
        },
        {
          "indexed": false,
          "internalType": "uint256",
          "name": "prize",
          "type": "uint256"
        }
      ],
      "name": "EndDraw",
      "type": "event"
    },
    {
      "anonymous": false,
      "inputs": [
        {
          "indexed": false,
          "internalType": "string",
          "name": "message",
          "type": "string"
        }
      ],
      "name": "Error",
      "type": "event"
    },
    {
      "anonymous": false,
      "inputs": [
        {
          "indexed": true,
          "internalType": "address",
          "name": "previousOwner",
          "type": "address"
        }
      ],
      "name": "OwnershipRenounced",
      "type": "event"
    },
    {
      "anonymous": false,
      "inputs": [
        {
          "indexed": true,
          "internalType": "address",
          "name": "previousOwner",
          "type": "address"
        },
        {
          "indexed": true,
          "internalType": "address",
          "name": "newOwner",
          "type": "address"
        }
      ],
      "name": "OwnershipTransferred",
      "type": "event"
    },
    {
      "constant": false,
      "inputs": [],
      "name": "deposit",
      "outputs": [],
      "payable": true,
      "stateMutability": "payable",
      "type": "function"
    },
    {
      "constant": false,
      "inputs": [],
      "name": "startDraw",
      "outputs": [],
      "payable": false,
      "stateMutability": "nonpayable",
      "type": "function"
    },
    {
      "constant": false,
      "inputs": [
        {
          "internalType": "bytes32",
          "name": "_myid",
          "type": "bytes32"
        },
        {
          "internalType": "string",
          "name": "_result",
          "type": "string"
        }
      ],
      "name": "__callback",
      "outputs": [],
      "payable": false,
      "stateMutability": "nonpayable",
      "type": "function"
    },
    {
      "constant": false,
      "inputs": [
        {
          "internalType": "bytes32",
          "name": "_queryId",
          "type": "bytes32"
        },
        {
          "internalType": "string",
          "name": "_result",
          "type": "string"
        },
        {
          "internalType": "bytes",
          "name": "_proof",
          "type": "bytes"
        }
      ],
      "name": "__callback",
      "outputs": [],
      "payable": false,
      "stateMutability": "nonpayable",
      "type": "function"
    },
    {
      "constant": false,
      "inputs": [],
      "name": "withdraw",
      "outputs": [],
      "payable": false,
      "stateMutability": "nonpayable",
      "type": "function"
    },
    {
      "constant": false,
      "inputs": [
        {
          "internalType": "uint256",
          "name": "seed",
          "type": "uint256"
        }
      ],
      "name": "ownerEndDraw",
      "outputs": [],
      "payable": false,
      "stateMutability": "nonpayable",
      "type": "function"
    },
    {
      "constant": false,
      "inputs": [
        {
          "internalType": "uint256",
          "name": "value",
          "type": "uint256"
        }
      ],
      "name": "ownerWithdraw",
      "outputs": [],
      "payable": false,
      "stateMutability": "nonpayable",
      "type": "function"
    },
    {
      "constant": false,
      "inputs": [
        {
          "internalType": "uint256",
          "name": "newValue",
          "type": "uint256"
        }
      ],
      "name": "setMinRounDuration",
      "outputs": [],
      "payable": false,
      "stateMutability": "nonpayable",
      "type": "function"
    },
    {
      "constant": false,
      "inputs": [
        {
          "internalType": "uint256",
          "name": "newValue",
          "type": "uint256"
        }
      ],
      "name": "setMinDeposit",
      "outputs": [],
      "payable": false,
      "stateMutability": "nonpayable",
      "type": "function"
    },
    {
      "constant": false,
      "inputs": [
        {
          "internalType": "address payable",
          "name": "newValue",
          "type": "address"
        }
      ],
      "name": "setCommissionWalet",
      "outputs": [],
      "payable": false,
      "stateMutability": "nonpayable",
      "type": "function"
    },
    {
      "constant": false,
      "inputs": [
        {
          "internalType": "uint256",
          "name": "newValue",
          "type": "uint256"
        }
      ],
      "name": "setCommissionPercent",
      "outputs": [],
      "payable": false,
      "stateMutability": "nonpayable",
      "type": "function"
    },
    {
      "constant": false,
      "inputs": [
        {
          "internalType": "uint256",
          "name": "newValue",
          "type": "uint256"
        }
      ],
      "name": "setOraclizeGasLimit",
      "outputs": [],
      "payable": false,
      "stateMutability": "nonpayable",
      "type": "function"
    },
    {
      "constant": false,
      "inputs": [
        {
          "internalType": "uint256",
          "name": "newValue",
          "type": "uint256"
        }
      ],
      "name": "setTicketPrice",
      "outputs": [],
      "payable": false,
      "stateMutability": "nonpayable",
      "type": "function"
    },
    {
      "constant": true,
      "inputs": [
        {
          "internalType": "address",
          "name": "player",
          "type": "address"
        },
        {
          "internalType": "uint256",
          "name": "roundNumber",
          "type": "uint256"
        }
      ],
      "name": "getPlayerTicketsCount",
      "outputs": [
        {
          "internalType": "uint256",
          "name": "",
          "type": "uint256"
        }
      ],
      "payable": false,
      "stateMutability": "view",
      "type": "function"
    },
    {
      "constant": true,
      "inputs": [],
      "name": "getTotalPlayerCount",
      "outputs": [
        {
          "internalType": "uint256",
          "name": "",
          "type": "uint256"
        }
      ],
      "payable": false,
      "stateMutability": "view",
      "type": "function"
    },
    {
      "constant": true,
      "inputs": [],
      "name": "getCurrentJp",
      "outputs": [
        {
          "internalType": "uint256",
          "name": "",
          "type": "uint256"
        }
      ],
      "payable": false,
      "stateMutability": "view",
      "type": "function"
    }
  ],
  "bytecode": "0x60806040526001600660006101000a81548160ff021916908315150217905550620493e0600755600160085560016009556064600b556103e8600c5566038d7ea4c68000600d556000600e556000600f60006101000a81548160ff02191690831515021790555060405162005e8138038062005e81833981810160405260208110156200008b57600080fd5b8101908080519060200190929190505050336000806101000a81548173ffffffffffffffffffffffffffffffffffffffff021916908373ffffffffffffffffffffffffffffffffffffffff16021790555080600660006101000a81548160ff02191690831515021790555033600a60006101000a81548173ffffffffffffffffffffffffffffffffffffffff021916908373ffffffffffffffffffffffffffffffffffffffff1602179055506001601260008282540392505081905550620001586200017a60201b60201c565b6001600060146101000a81548160ff02191690831515021790555050620003a0565b60016012600082825401925050819055506200019562000295565b6040518060c0016040528060008152602001600081526020016000815260200160008152602001600081526020016000604051908082528060200260200182016040528015620001f45781602001602082028038833980820191505090505b50815250905043816040018181525050600d5481602001818152505060138190806001815401808255809150509060018203906000526020600020906007020160009091929091909150600082015181600001556020820151816001015560408201518160020155606082015181600301556080820151816004015560a08201518160050190805190602001906200028e929190620002cb565b5050505050565b6040518060c001604052806000815260200160008152602001600081526020016000815260200160008152602001606081525090565b82805482825590600052602060002090810192821562000347579160200282015b82811115620003465782518260006101000a81548173ffffffffffffffffffffffffffffffffffffffff021916908373ffffffffffffffffffffffffffffffffffffffff16021790555091602001919060010190620002ec565b5b5090506200035691906200035a565b5090565b6200039d91905b808211156200039957600081816101000a81549073ffffffffffffffffffffffffffffffffffffffff02191690555060010162000361565b5090565b90565b615ad180620003b06000396000f3fe6080604052600436106101e25760003560e01c806377d3550b116101025780638fcc9cfb11610095578063f2fde38b11610064578063f2fde38b146109d6578063f44ce7f614610a27578063fc5bb43c14610a52578063fd9d3c2114610ac1576101e2565b80638fcc9cfb1461093b5780639c4780d814610976578063d0e30db0146109a1578063dd0d83dd146109ab576101e2565b80638c65c81f116100d15780638c65c81f146107e75780638da5cb5b146108525780638ddf792b146108a95780638f1832ec146108e4576101e2565b806377d3550b146107275780637b929c27146107525780637cb89d54146107815780637e23a2b9146107ac576101e2565b806338bbfa501161017a57806350b9c4281161014957806350b9c4281461060b5780635251d91c146106365780637138b436146106bb5780637726bed3146106ea576101e2565b806338bbfa50146104255780633ccfd60b1461058e578063404a9ab8146105a557806341b3d185146105e0576101e2565b806327dc297e116101b657806327dc297e146102d65780632a347a0d146103a85780632ae168a6146103d357806333f707d1146103ea576101e2565b806238885e146101e45780631209b1f614610235578063159816501461026057806317c7ff421461029b575b005b3480156101f057600080fd5b506102336004803603602081101561020757600080fd5b81019080803573ffffffffffffffffffffffffffffffffffffffff169060200190929190505050610aec565b005b34801561024157600080fd5b5061024a610bf2565b6040518082815260200191505060405180910390f35b34801561026c57600080fd5b506102996004803603602081101561028357600080fd5b8101908080359060200190929190505050610bf8565b005b3480156102a757600080fd5b506102d4600480360360208110156102be57600080fd5b8101908080359060200190929190505050610cc4565b005b3480156102e257600080fd5b506103a6600480360360408110156102f957600080fd5b81019080803590602001909291908035906020019064010000000081111561032057600080fd5b82018360208201111561033257600080fd5b8035906020019184600183028401116401000000008311171561035457600080fd5b91908080601f016020809104026020016040519081016040528093929190818152602001838380828437600081840152601f19601f820116905080830192505050505050509192919290505050610d90565b005b3480156103b457600080fd5b506103bd610dd3565b6040518082815260200191505060405180910390f35b3480156103df57600080fd5b506103e8610dd9565b005b3480156103f657600080fd5b506104236004803603602081101561040d57600080fd5b8101908080359060200190929190505050610f50565b005b34801561043157600080fd5b5061058c6004803603606081101561044857600080fd5b81019080803590602001909291908035906020019064010000000081111561046f57600080fd5b82018360208201111561048157600080fd5b803590602001918460018302840111640100000000831117156104a357600080fd5b91908080601f016020809104026020016040519081016040528093929190818152602001838380828437600081840152601f19601f8201169050808301925050505050505091929192908035906020019064010000000081111561050657600080fd5b82018360208201111561051857600080fd5b8035906020019184600183028401116401000000008311171561053a57600080fd5b91908080601f016020809104026020016040519081016040528093929190818152602001838380828437600081840152601f19601f82011690508083019250505050505050919291929050505061110a565b005b34801561059a57600080fd5b506105a36112d1565b005b3480156105b157600080fd5b506105de600480360360208110156105c857600080fd5b81019080803590602001909291905050506114b9565b005b3480156105ec57600080fd5b506105f5611585565b6040518082815260200191505060405180910390f35b34801561061757600080fd5b5061062061158b565b6040518082815260200191505060405180910390f35b34801561064257600080fd5b506106856004803603602081101561065957600080fd5b81019080803573ffffffffffffffffffffffffffffffffffffffff169060200190929190505050611591565b60405180861515151581526020018581526020018481526020018381526020018281526020019550505050505060405180910390f35b3480156106c757600080fd5b506106d06115d4565b604051808215151515815260200191505060405180910390f35b3480156106f657600080fd5b506107256004803603602081101561070d57600080fd5b810190808035151590602001909291905050506115e7565b005b34801561073357600080fd5b5061073c6116c6565b6040518082815260200191505060405180910390f35b34801561075e57600080fd5b506107676116cc565b604051808215151515815260200191505060405180910390f35b34801561078d57600080fd5b506107966116df565b6040518082815260200191505060405180910390f35b3480156107b857600080fd5b506107e5600480360360208110156107cf57600080fd5b81019080803590602001909291905050506116e5565b005b3480156107f357600080fd5b506108206004803603602081101561080a57600080fd5b81019080803590602001909291905050506117b3565b604051808681526020018581526020018481526020018381526020018281526020019550505050505060405180910390f35b34801561085e57600080fd5b506108676117f6565b604051808273ffffffffffffffffffffffffffffffffffffffff1673ffffffffffffffffffffffffffffffffffffffff16815260200191505060405180910390f35b3480156108b557600080fd5b506108e2600480360360208110156108cc57600080fd5b810190808035906020019092919050505061181b565b005b3480156108f057600080fd5b506108f96118e7565b604051808273ffffffffffffffffffffffffffffffffffffffff1673ffffffffffffffffffffffffffffffffffffffff16815260200191505060405180910390f35b34801561094757600080fd5b506109746004803603602081101561095e57600080fd5b810190808035906020019092919050505061190d565b005b34801561098257600080fd5b5061098b6119d9565b6040518082815260200191505060405180910390f35b6109a96119df565b005b3480156109b757600080fd5b506109c0611dd4565b6040518082815260200191505060405180910390f35b3480156109e257600080fd5b50610a25600480360360208110156109f957600080fd5b81019080803573ffffffffffffffffffffffffffffffffffffffff169060200190929190505050611e1e565b005b348015610a3357600080fd5b50610a3c612041565b6040518082815260200191505060405180910390f35b348015610a5e57600080fd5b50610aab60048036036040811015610a7557600080fd5b81019080803573ffffffffffffffffffffffffffffffffffffffff16906020019092919080359060200190929190505050612047565b6040518082815260200191505060405180910390f35b348015610acd57600080fd5b50610ad66120ad565b6040518082815260200191505060405180910390f35b6000809054906101000a900473ffffffffffffffffffffffffffffffffffffffff1673ffffffffffffffffffffffffffffffffffffffff163373ffffffffffffffffffffffffffffffffffffffff1614610bae576040517f08c379a00000000000000000000000000000000000000000000000000000000081526004018080602001828103825260128152602001807f5065726d697373696f6e2064656e69656421000000000000000000000000000081525060200191505060405180910390fd5b80600a60006101000a81548173ffffffffffffffffffffffffffffffffffffffff021916908373ffffffffffffffffffffffffffffffffffffffff16021790555050565b600d5481565b6000809054906101000a900473ffffffffffffffffffffffffffffffffffffffff1673ffffffffffffffffffffffffffffffffffffffff163373ffffffffffffffffffffffffffffffffffffffff1614610cba576040517f08c379a00000000000000000000000000000000000000000000000000000000081526004018080602001828103825260128152602001807f5065726d697373696f6e2064656e69656421000000000000000000000000000081525060200191505060405180910390fd5b80600d8190555050565b6000809054906101000a900473ffffffffffffffffffffffffffffffffffffffff1673ffffffffffffffffffffffffffffffffffffffff163373ffffffffffffffffffffffffffffffffffffffff1614610d86576040517f08c379a00000000000000000000000000000000000000000000000000000000081526004018080602001828103825260128152602001807f5065726d697373696f6e2064656e69656421000000000000000000000000000081525060200191505060405180910390fd5b8060088190555050565b610dcf828260006040519080825280601f01601f191660200182016040528015610dc95781602001600182028038833980820191505090505b5061110a565b5050565b60085481565b600060149054906101000a900460ff16610e5b576040517f08c379a000000000000000000000000000000000000000000000000000000000815260040180806020018281038252600c8152602001807f4e6f7420776f726b696e6721000000000000000000000000000000000000000081525060200191505060405180910390fd5b600854601360125481548110610e6d57fe5b9060005260206000209060070201600201544303118015610eb257506002601360125481548110610e9a57fe5b90600052602060002090600702016005018054905010155b15610f4e576001600f60006101000a81548160ff02191690831515021790555043601360125481548110610ee257fe5b906000526020600020906007020160030181905550600660009054906101000a900460ff16610f1457610f136120ba565b5b7fbc964b68b07843ad5eb3568ea6f97fe91101e297f51cd50c2ea20b2229914d686012546040518082815260200191505060405180910390a15b565b6000809054906101000a900473ffffffffffffffffffffffffffffffffffffffff1673ffffffffffffffffffffffffffffffffffffffff163373ffffffffffffffffffffffffffffffffffffffff1614611012576040517f08c379a00000000000000000000000000000000000000000000000000000000081526004018080602001828103825260128152602001807f5065726d697373696f6e2064656e69656421000000000000000000000000000081525060200191505060405180910390fd5b803073ffffffffffffffffffffffffffffffffffffffff1631101561109f576040517f08c379a000000000000000000000000000000000000000000000000000000000815260040180806020018281038252600f8152602001807f544f444f3a206f6f6d206c6162656c000000000000000000000000000000000081525060200191505060405180910390fd5b6000809054906101000a900473ffffffffffffffffffffffffffffffffffffffff1673ffffffffffffffffffffffffffffffffffffffff166108fc829081150290604051600060405180830381858888f19350505050158015611106573d6000803e3d6000fd5b5050565b6111126120e4565b73ffffffffffffffffffffffffffffffffffffffff163373ffffffffffffffffffffffffffffffffffffffff16146111b2576040517f08c379a000000000000000000000000000000000000000000000000000000000815260040180806020018281038252600d8152602001807f6f7261636c697a65206f6e6c790000000000000000000000000000000000000081525060200191505060405180910390fd5b60006111bf848484612404565b60ff1614611234577f08c379a0afcc32b1a39302f7cb8073359698411ab5fd6e3edb2c02c0b5fba8aa60405180806020018281038252601d8152602001807f70726f6f6620766572696669636174696f6e20686173206661696c656400000081525060200191505060405180910390a16112cc565b6112cb826040516020018080602001828103825283818151815260200191508051906020019080838360005b8381101561127b578082015181840152602081019050611260565b50505050905090810190601f1680156112a85780820380516001836020036101000a031916815260200191505b50925050506040516020818303038152906040528051906020012060001c612534565b5b505050565b600060149054906101000a900460ff16611353576040517f08c379a000000000000000000000000000000000000000000000000000000000815260040180806020018281038252600c8152602001807f4e6f7420776f726b696e6721000000000000000000000000000000000000000081525060200191505060405180910390fd5b6000601060003373ffffffffffffffffffffffffffffffffffffffff1673ffffffffffffffffffffffffffffffffffffffff168152602001908152602001600020600101549050803073ffffffffffffffffffffffffffffffffffffffff16311015611427576040517f08c379a000000000000000000000000000000000000000000000000000000000815260040180806020018281038252600f8152602001807f544f444f3a206f6f6d206c6162656c000000000000000000000000000000000081525060200191505060405180910390fd5b6000601060003373ffffffffffffffffffffffffffffffffffffffff1673ffffffffffffffffffffffffffffffffffffffff168152602001908152602001600020600101819055503373ffffffffffffffffffffffffffffffffffffffff166108fc829081150290604051600060405180830381858888f193505050501580156114b5573d6000803e3d6000fd5b5050565b6000809054906101000a900473ffffffffffffffffffffffffffffffffffffffff1673ffffffffffffffffffffffffffffffffffffffff163373ffffffffffffffffffffffffffffffffffffffff161461157b576040517f08c379a00000000000000000000000000000000000000000000000000000000081526004018080602001828103825260128152602001807f5065726d697373696f6e2064656e69656421000000000000000000000000000081525060200191505060405180910390fd5b80600b8190555050565b60095481565b60075481565b60106020528060005260406000206000915090508060000160009054906101000a900460ff16908060010154908060020154908060030154908060040154905085565b600f60009054906101000a900460ff1681565b6000809054906101000a900473ffffffffffffffffffffffffffffffffffffffff1673ffffffffffffffffffffffffffffffffffffffff163373ffffffffffffffffffffffffffffffffffffffff16146116a9576040517f08c379a00000000000000000000000000000000000000000000000000000000081526004018080602001828103825260128152602001807f5065726d697373696f6e2064656e69656421000000000000000000000000000081525060200191505060405180910390fd5b80600060146101000a81548160ff02191690831515021790555050565b600b5481565b600660009054906101000a900460ff1681565b600c5481565b6000809054906101000a900473ffffffffffffffffffffffffffffffffffffffff1673ffffffffffffffffffffffffffffffffffffffff163373ffffffffffffffffffffffffffffffffffffffff16146117a7576040517f08c379a00000000000000000000000000000000000000000000000000000000081526004018080602001828103825260128152602001807f5065726d697373696f6e2064656e69656421000000000000000000000000000081525060200191505060405180910390fd5b6117b081612534565b50565b601381815481106117c057fe5b90600052602060002090600702016000915090508060000154908060010154908060020154908060030154908060040154905085565b6000809054906101000a900473ffffffffffffffffffffffffffffffffffffffff1681565b6000809054906101000a900473ffffffffffffffffffffffffffffffffffffffff1673ffffffffffffffffffffffffffffffffffffffff163373ffffffffffffffffffffffffffffffffffffffff16146118dd576040517f08c379a00000000000000000000000000000000000000000000000000000000081526004018080602001828103825260128152602001807f5065726d697373696f6e2064656e69656421000000000000000000000000000081525060200191505060405180910390fd5b8060078190555050565b600a60009054906101000a900473ffffffffffffffffffffffffffffffffffffffff1681565b6000809054906101000a900473ffffffffffffffffffffffffffffffffffffffff1673ffffffffffffffffffffffffffffffffffffffff163373ffffffffffffffffffffffffffffffffffffffff16146119cf576040517f08c379a00000000000000000000000000000000000000000000000000000000081526004018080602001828103825260128152602001807f5065726d697373696f6e2064656e69656421000000000000000000000000000081525060200191505060405180910390fd5b8060098190555050565b60125481565b600060149054906101000a900460ff16611a61576040517f08c379a000000000000000000000000000000000000000000000000000000000815260040180806020018281038252600c8152602001807f4e6f7420776f726b696e6721000000000000000000000000000000000000000081525060200191505060405180910390fd5b60001515600f60009054906101000a900460ff16151514611aea576040517f08c379a00000000000000000000000000000000000000000000000000000000081526004018080602001828103825260108152602001807f47616d652069732064726177696e67210000000000000000000000000000000081525060200191505060405180910390fd5b6000601360125481548110611afb57fe5b90600052602060002090600702019050600081600101543481611b1a57fe5b049050600082600101543481611b2c57fe5b0690506000601060003373ffffffffffffffffffffffffffffffffffffffff1673ffffffffffffffffffffffffffffffffffffffff16815260200190815260200160002090508060000160009054906101000a900460ff16611c0c5760018160000160006101000a81548160ff02191690831515021790555060113390806001815401808255809150509060018203906000526020600020016000909192909190916101000a81548173ffffffffffffffffffffffffffffffffffffffff021916908373ffffffffffffffffffffffffffffffffffffffff160217905550505b8181600101600082825401925050819055503481600201600082825401925050819055506000831115611dce5782846000016000828254019250508190555060008460060160003373ffffffffffffffffffffffffffffffffffffffff1673ffffffffffffffffffffffffffffffffffffffff168152602001908152602001600020541415611d1257836005013390806001815401808255809150509060018203906000526020600020016000909192909190916101000a81548173ffffffffffffffffffffffffffffffffffffffff021916908373ffffffffffffffffffffffffffffffffffffffff1602179055505080600401600081548092919060010191905055505b828460060160003373ffffffffffffffffffffffffffffffffffffffff1673ffffffffffffffffffffffffffffffffffffffff168152602001908152602001600020600082825401925050819055503373ffffffffffffffffffffffffffffffffffffffff167f36af321ec8d3c75236829c5317affd40ddb308863a1236d2d277a4025cccee1e34858760010154870260405180848152602001838152602001828152602001935050505060405180910390a2611dcd610dd9565b5b50505050565b6000601360125481548110611de557fe5b906000526020600020906007020160010154601360125481548110611e0657fe5b90600052602060002090600702016000015402905090565b6000809054906101000a900473ffffffffffffffffffffffffffffffffffffffff1673ffffffffffffffffffffffffffffffffffffffff163373ffffffffffffffffffffffffffffffffffffffff1614611ee0576040517f08c379a00000000000000000000000000000000000000000000000000000000081526004018080602001828103825260128152602001807f5065726d697373696f6e2064656e69656421000000000000000000000000000081525060200191505060405180910390fd5b600073ffffffffffffffffffffffffffffffffffffffff168173ffffffffffffffffffffffffffffffffffffffff161415611f83576040517f08c379a00000000000000000000000000000000000000000000000000000000081526004018080602001828103825260158152602001807f41646472657373206973206e6f742076616c696421000000000000000000000081525060200191505060405180910390fd5b8073ffffffffffffffffffffffffffffffffffffffff166000809054906101000a900473ffffffffffffffffffffffffffffffffffffffff1673ffffffffffffffffffffffffffffffffffffffff167f8be0079c531659141344cd1fd0a4f28419497f9722a3daafe3b4186f6b6457e060405160405180910390a3806000806101000a81548173ffffffffffffffffffffffffffffffffffffffff021916908373ffffffffffffffffffffffffffffffffffffffff16021790555050565b600e5481565b60006013828154811061205657fe5b906000526020600020906007020160060160008473ffffffffffffffffffffffffffffffffffffffff1673ffffffffffffffffffffffffffffffffffffffff16815260200190815260200160002054905092915050565b6000601180549050905090565b6120c7603060f81b6129f1565b60006010905060008090506120df8183600754612d3c565b505050565b60008073ffffffffffffffffffffffffffffffffffffffff16600260009054906101000a900473ffffffffffffffffffffffffffffffffffffffff1673ffffffffffffffffffffffffffffffffffffffff16148061216c5750600061216a600260009054906101000a900473ffffffffffffffffffffffffffffffffffffffff166132d7565b145b1561217d5761217b60006132e2565b505b600260009054906101000a900473ffffffffffffffffffffffffffffffffffffffff1673ffffffffffffffffffffffffffffffffffffffff166338cc48316040518163ffffffff1660e01b8152600401602060405180830381600087803b1580156121e757600080fd5b505af11580156121fb573d6000803e3d6000fd5b505050506040513d602081101561221157600080fd5b810190808051906020019092919050505073ffffffffffffffffffffffffffffffffffffffff16600160009054906101000a900473ffffffffffffffffffffffffffffffffffffffff1673ffffffffffffffffffffffffffffffffffffffff161461235c57600260009054906101000a900473ffffffffffffffffffffffffffffffffffffffff1673ffffffffffffffffffffffffffffffffffffffff166338cc48316040518163ffffffff1660e01b8152600401602060405180830381600087803b1580156122e057600080fd5b505af11580156122f4573d6000803e3d6000fd5b505050506040513d602081101561230a57600080fd5b8101908080519060200190929190505050600160006101000a81548173ffffffffffffffffffffffffffffffffffffffff021916908373ffffffffffffffffffffffffffffffffffffffff1602179055505b600160009054906101000a900473ffffffffffffffffffffffffffffffffffffffff1673ffffffffffffffffffffffffffffffffffffffff1663c281d19e6040518163ffffffff1660e01b815260040160206040518083038186803b1580156123c457600080fd5b505afa1580156123d8573d6000803e3d6000fd5b505050506040513d60208110156123ee57600080fd5b8101908080519060200190929190505050905090565b60007f4c000000000000000000000000000000000000000000000000000000000000008260008151811061243457fe5b602001015160f81c60f81b7effffffffffffffffffffffffffffffffffffffffffffffffffffffffffffff19161415806124c757507f50000000000000000000000000000000000000000000000000000000000000008260018151811061249757fe5b602001015160f81c60f81b7effffffffffffffffffffffffffffffffffffffffffffffffffffffffffffff191614155b806124f35750600160ff16826002815181106124df57fe5b602001015160f81c60f81b60f81c60ff1614155b15612501576001905061252d565b60006125168386866125116132f3565b613395565b90508061252757600291505061252d565b60009150505b9392505050565b60011515600f60009054906101000a900460ff161515146125bd576040517f08c379a00000000000000000000000000000000000000000000000000000000081526004018080602001828103825260148152602001807f44726177206e6f7420696e2070726f636573732100000000000000000000000081525060200191505060405180910390fd5b60006013601254815481106125ce57fe5b906000526020600020906007020190506000816000015483816125ed57fe5b069050600080905060008090505b8360050180549050811015612728578184600601600086600501848154811061262057fe5b9060005260206000200160009054906101000a900473ffffffffffffffffffffffffffffffffffffffff1673ffffffffffffffffffffffffffffffffffffffff1673ffffffffffffffffffffffffffffffffffffffff168152602001908152602001600020540183101561269c57808460040181905550612728565b8360060160008560050183815481106126b157fe5b9060005260206000200160009054906101000a900473ffffffffffffffffffffffffffffffffffffffff1673ffffffffffffffffffffffffffffffffffffffff1673ffffffffffffffffffffffffffffffffffffffff168152602001908152602001600020548201915080806001019150506125fb565b5060008360050184600401548154811061273e57fe5b9060005260206000200160009054906101000a900473ffffffffffffffffffffffffffffffffffffffff1690506000846001015485600001540290506000600c54600b5483028161278b57fe5b04905060008183039050600e548311156127a75782600e819055505b82601060008673ffffffffffffffffffffffffffffffffffffffff1673ffffffffffffffffffffffffffffffffffffffff168152602001908152602001600020600301600082825401925050819055508373ffffffffffffffffffffffffffffffffffffffff166108fc829081150290604051600060405180830381858888f193505050506128815780601060008673ffffffffffffffffffffffffffffffffffffffff1673ffffffffffffffffffffffffffffffffffffffff168152602001908152602001600020600101600082825401925050819055505b600a60009054906101000a900473ffffffffffffffffffffffffffffffffffffffff1673ffffffffffffffffffffffffffffffffffffffff166108fc839081150290604051600060405180830381858888f1935050505061294f578160106000600a60009054906101000a900473ffffffffffffffffffffffffffffffffffffffff1673ffffffffffffffffffffffffffffffffffffffff1673ffffffffffffffffffffffffffffffffffffffff168152602001908152602001600020600101600082825401925050819055505b7f141bb1c6f0ddd34ef6c1bdc99d1a3d66ec9e655ba50cc1186b2a9b0cbba9f00f6012548585604051808481526020018373ffffffffffffffffffffffffffffffffffffffff1673ffffffffffffffffffffffffffffffffffffffff168152602001828152602001935050505060405180910390a16129cc613a40565b6000600f60006101000a81548160ff0219169083151502179055505050505050505050565b600073ffffffffffffffffffffffffffffffffffffffff16600260009054906101000a900473ffffffffffffffffffffffffffffffffffffffff1673ffffffffffffffffffffffffffffffffffffffff161480612a7857506000612a76600260009054906101000a900473ffffffffffffffffffffffffffffffffffffffff166132d7565b145b15612a8957612a8760006132e2565b505b600260009054906101000a900473ffffffffffffffffffffffffffffffffffffffff1673ffffffffffffffffffffffffffffffffffffffff166338cc48316040518163ffffffff1660e01b8152600401602060405180830381600087803b158015612af357600080fd5b505af1158015612b07573d6000803e3d6000fd5b505050506040513d6020811015612b1d57600080fd5b810190808051906020019092919050505073ffffffffffffffffffffffffffffffffffffffff16600160009054906101000a900473ffffffffffffffffffffffffffffffffffffffff1673ffffffffffffffffffffffffffffffffffffffff1614612c6857600260009054906101000a900473ffffffffffffffffffffffffffffffffffffffff1673ffffffffffffffffffffffffffffffffffffffff166338cc48316040518163ffffffff1660e01b8152600401602060405180830381600087803b158015612bec57600080fd5b505af1158015612c00573d6000803e3d6000fd5b505050506040513d6020811015612c1657600080fd5b8101908080519060200190929190505050600160006101000a81548173ffffffffffffffffffffffffffffffffffffffff021916908373ffffffffffffffffffffffffffffffffffffffff1602179055505b600160009054906101000a900473ffffffffffffffffffffffffffffffffffffffff1673ffffffffffffffffffffffffffffffffffffffff1663688dcfd7826040518263ffffffff1660e01b815260040180827effffffffffffffffffffffffffffffffffffffffffffffffffffffffffffff19167effffffffffffffffffffffffffffffffffffffffffffffffffffffffffffff19168152602001915050600060405180830381600087803b158015612d2157600080fd5b505af1158015612d35573d6000803e3d6000fd5b5050505050565b60008083118015612d4e575060208311155b612d5757600080fd5b600a84029350606060016040519080825280601f01601f191660200182016040528015612d935781602001600182028038833980820191505090505b5090508360f81b81600081518110612da757fe5b60200101907effffffffffffffffffffffffffffffffffffffffffffffffffffffffffffff1916908160001a905350606060206040519080825280601f01601f191660200182016040528015612e0c5781602001600182028038833980820191505090505b509050606060206040519080825280601f01601f191660200182016040528015612e455781602001600182028038833980820191505090505b5090506000612e52613b56565b905060208352424118600143034018602084015260208252806020830152606060206040519080825280601f01601f191660200182016040528015612ea65781602001600182028038833980820191505090505b509050886020820152606060086040519080825280601f01601f191660200182016040528015612ee55781602001600182028038833980820191505090505b509050612ef88260186008846000613e76565b50612f01615873565b60405180608001604052808781526020018881526020018681526020018481525090506000612f666040518060400160405280600681526020017f72616e646f6d0000000000000000000000000000000000000000000000000000815250838c613f3e565b9050606060086040519080825280601f01601f191660200182016040528015612f9e5781602001600182028038833980820191505090505b50905060208401517f0100000000000000000000000000000000000000000000000000000000000000810460278301537e01000000000000000000000000000000000000000000000000000000000000810460268301537d010000000000000000000000000000000000000000000000000000000000810460258301537c0100000000000000000000000000000000000000000000000000000000810460248301537b01000000000000000000000000000000000000000000000000000000810460238301537a0100000000000000000000000000000000000000000000000000008104602283015379010000000000000000000000000000000000000000000000000081046021830153780100000000000000000000000000000000000000000000000081046020830153506132c48282856001600481106130dd57fe5b60200201516002876000600481106130f157fe5b60200201516040518082805190602001908083835b602083106131295780518252602082019150602081019050602083039250613106565b6001836020036101000a038019825116818451168082178552505050505050905001915050602060405180830381855afa15801561316b573d6000803e3d6000fd5b5050506040513d602081101561318057600080fd5b81019080805190602001909291905050508760026004811061319e57fe5b60200201516040516020018085805190602001908083835b602083106131d957805182526020820191506020810190506020830392506131b6565b6001836020036101000a03801982511681845116808217855250505050505090500184805190602001908083835b6020831061322a5780518252602082019150602081019050602083039250613207565b6001836020036101000a03801982511681845116808217855250505050505090500183815260200182805190602001908083835b60208310613281578051825260208201915060208101905060208303925061325e565b6001836020036101000a038019825116818451168082178552505050505050905001945050505050604051602081830303815290604052805190602001206142ad565b8199505050505050505050509392505050565b6000813b9050919050565b60006132ec6142c9565b9050919050565b606060038054600181600116156101000203166002900480601f01602080910402602001604051908101604052809291908181526020018280546001816001161561010002031660029004801561338b5780601f106133605761010080835404028352916020019161338b565b820191906000526020600020905b81548152906001019060200180831161336e57829003601f168201915b5050505050905090565b60008060206002876045815181106133a957fe5b602001015160f81c60f81b60f81c60ff1601604401019050606060206040519080825280601f01601f1916602001820160405280156133f75781602001600182028038833980820191505090505b50905061340987836020846000613e76565b50600284876040516020018083805190602001908083835b602083106134445780518252602082019150602081019050602083039250613421565b6001836020036101000a038019825116818451168082178552505050505050905001828152602001925050506040516020818303038152906040526040518082805190602001908083835b602083106134b2578051825260208201915060208101905060208303925061348f565b6001836020036101000a038019825116818451168082178552505050505050905001915050602060405180830381855afa1580156134f4573d6000803e3d6000fd5b5050506040513d602081101561350957600080fd5b8101908080519060200190929190505050604051602001808281526020019150506040516020818303038152906040528051906020012081805190602001201461355857600092505050613a38565b6060600288600160498601018151811061356e57fe5b602001015160f81c60f81b60f81c60ff16016040519080825280601f01601f1916602001820160405280156135b25781602001600182028038833980820191505090505b5090506135c788604985018351846000613e76565b506136926002826040518082805190602001908083835b6020831061360157805182526020820191506020810190506020830392506135de565b6001836020036101000a038019825116818451168082178552505050505050905001915050602060405180830381855afa158015613643573d6000803e3d6000fd5b5050506040513d602081101561365857600080fd5b8101908080519060200190929190505050878a600860208801018151811061367c57fe5b602001015160f81c60f81b60f81c60ff16614820565b6136a25760009350505050613a38565b606060296040519080825280601f01601f1916602001820160405280156136d85781602001600182028038833980820191505090505b5090506136ed89602086016029846000613e76565b506060604080519080825280601f01601f1916602001820160405280156137235781602001600182028038833980820191505090505b50905060006041845160296020890101010190506137498b604083036040856000613e76565b5060006002836040518082805190602001908083835b60208310613782578051825260208201915060208101905060208303925061375f565b6001836020036101000a038019825116818451168082178552505050505050905001915050602060405180830381855afa1580156137c4573d6000803e3d6000fd5b5050506040513d60208110156137d957600080fd5b8101908080519060200190929190505050905083816040516020018083805190602001908083835b602083106138245780518252602082019150602081019050602083039250613801565b6001836020036101000a0380198251168184511680821785525050505050509050018281526020019250505060405160208183030381529060405280519060200120600460008d815260200190815260200160002054141561389c57600460008c8152602001908152602001600020600090556138ac565b6000975050505050505050613a38565b606060496040519080825280601f01601f1916602001820160405280156138e25781602001600182028038833980820191505090505b5090506138f48d896049846000613e76565b5061399d6002826040518082805190602001908083835b6020831061392e578051825260208201915060208101905060208303925061390b565b6001836020036101000a038019825116818451168082178552505050505050905001915050602060405180830381855afa158015613970573d6000803e3d6000fd5b5050506040513d602081101561398557600080fd5b810190808051906020019092919050505087866148d0565b6139b257600098505050505050505050613a38565b6005600083815260200190815260200160002060009054906101000a900460ff16613a0c576139e18d84614a8e565b6005600084815260200190815260200160002060006101000a81548160ff0219169083151502179055505b6005600083815260200190815260200160002060009054906101000a900460ff16985050505050505050505b949350505050565b6001601260008282540192505081905550613a5961589a565b6040518060c0016040528060008152602001600081526020016000815260200160008152602001600081526020016000604051908082528060200260200182016040528015613ab75781602001602082028038833980820191505090505b50815250905043816040018181525050600d5481602001818152505060138190806001815401808255809150509060018203906000526020600020906007020160009091929091909150600082015181600001556020820151816001015560408201518160020155606082015181600301556080820151816004015560a0820151816005019080519060200190613b4f9291906158d0565b5050505050565b60008073ffffffffffffffffffffffffffffffffffffffff16600260009054906101000a900473ffffffffffffffffffffffffffffffffffffffff1673ffffffffffffffffffffffffffffffffffffffff161480613bde57506000613bdc600260009054906101000a900473ffffffffffffffffffffffffffffffffffffffff166132d7565b145b15613bef57613bed60006132e2565b505b600260009054906101000a900473ffffffffffffffffffffffffffffffffffffffff1673ffffffffffffffffffffffffffffffffffffffff166338cc48316040518163ffffffff1660e01b8152600401602060405180830381600087803b158015613c5957600080fd5b505af1158015613c6d573d6000803e3d6000fd5b505050506040513d6020811015613c8357600080fd5b810190808051906020019092919050505073ffffffffffffffffffffffffffffffffffffffff16600160009054906101000a900473ffffffffffffffffffffffffffffffffffffffff1673ffffffffffffffffffffffffffffffffffffffff1614613dce57600260009054906101000a900473ffffffffffffffffffffffffffffffffffffffff1673ffffffffffffffffffffffffffffffffffffffff166338cc48316040518163ffffffff1660e01b8152600401602060405180830381600087803b158015613d5257600080fd5b505af1158015613d66573d6000803e3d6000fd5b505050506040513d6020811015613d7c57600080fd5b8101908080519060200190929190505050600160006101000a81548173ffffffffffffffffffffffffffffffffffffffff021916908373ffffffffffffffffffffffffffffffffffffffff1602179055505b600160009054906101000a900473ffffffffffffffffffffffffffffffffffffffff1673ffffffffffffffffffffffffffffffffffffffff1663abaa5f3e6040518163ffffffff1660e01b815260040160206040518083038186803b158015613e3657600080fd5b505afa158015613e4a573d6000803e3d6000fd5b505050506040513d6020811015613e6057600080fd5b8101908080519060200190929190505050905090565b6060600082850190508084511015613ef6576040517f08c379a00000000000000000000000000000000000000000000000000000000081526004018080602001828103825260118152602001807f42756666657220746f6f20736d616c6c2e00000000000000000000000000000081525060200191505060405180910390fd5b600086602001905060008460200190505b868860200101821015613f2f5781890151808288015250602082019150602081019050613f07565b85935050505095945050505050565b60008073ffffffffffffffffffffffffffffffffffffffff16600260009054906101000a900473ffffffffffffffffffffffffffffffffffffffff1673ffffffffffffffffffffffffffffffffffffffff161480613fc657506000613fc4600260009054906101000a900473ffffffffffffffffffffffffffffffffffffffff166132d7565b145b15613fd757613fd560006132e2565b505b600260009054906101000a900473ffffffffffffffffffffffffffffffffffffffff1673ffffffffffffffffffffffffffffffffffffffff166338cc48316040518163ffffffff1660e01b8152600401602060405180830381600087803b15801561404157600080fd5b505af1158015614055573d6000803e3d6000fd5b505050506040513d602081101561406b57600080fd5b810190808051906020019092919050505073ffffffffffffffffffffffffffffffffffffffff16600160009054906101000a900473ffffffffffffffffffffffffffffffffffffffff1673ffffffffffffffffffffffffffffffffffffffff16146141b657600260009054906101000a900473ffffffffffffffffffffffffffffffffffffffff1673ffffffffffffffffffffffffffffffffffffffff166338cc48316040518163ffffffff1660e01b8152600401602060405180830381600087803b15801561413a57600080fd5b505af115801561414e573d6000803e3d6000fd5b505050506040513d602081101561416457600080fd5b8101908080519060200190929190505050600160006101000a81548173ffffffffffffffffffffffffffffffffffffffff021916908373ffffffffffffffffffffffffffffffffffffffff1602179055505b606060046040519080825280602002602001820160405280156141ed57816020015b60608152602001906001900390816141d85790505b509050836000600481106141fd57fe5b60200201518160008151811061420f57fe5b60200260200101819052508360016004811061422757fe5b60200201518160018151811061423957fe5b60200260200101819052508360026004811061425157fe5b60200201518160028151811061426357fe5b60200260200101819052508360036004811061427b57fe5b60200201518160038151811061428d57fe5b60200260200101819052506142a3858285614ea6565b9150509392505050565b8060046000848152602001908152602001600020819055505050565b6000806142e9731d3b2638a7cc9f2cb3d298a3da7a90b67e5506ed6132d7565b111561438b57731d3b2638a7cc9f2cb3d298a3da7a90b67e5506ed600260006101000a81548173ffffffffffffffffffffffffffffffffffffffff021916908373ffffffffffffffffffffffffffffffffffffffff1602179055506143826040518060400160405280600b81526020017f6574685f6d61696e6e657400000000000000000000000000000000000000000081525061540c565b6001905061481d565b60006143aa73c03a2615d5efaf5f49f60b7bb6583eaec212fdf16132d7565b111561444c5773c03a2615d5efaf5f49f60b7bb6583eaec212fdf1600260006101000a81548173ffffffffffffffffffffffffffffffffffffffff021916908373ffffffffffffffffffffffffffffffffffffffff1602179055506144436040518060400160405280600c81526020017f6574685f726f707374656e33000000000000000000000000000000000000000081525061540c565b6001905061481d565b600061446b73b7a07bcf2ba2f2703b24c0691b5278999c59ac7e6132d7565b111561450d5773b7a07bcf2ba2f2703b24c0691b5278999c59ac7e600260006101000a81548173ffffffffffffffffffffffffffffffffffffffff021916908373ffffffffffffffffffffffffffffffffffffffff1602179055506145046040518060400160405280600981526020017f6574685f6b6f76616e000000000000000000000000000000000000000000000081525061540c565b6001905061481d565b600061452c73146500cfd35b22e4a392fe0adc06de1a1368ed486132d7565b11156145ce5773146500cfd35b22e4a392fe0adc06de1a1368ed48600260006101000a81548173ffffffffffffffffffffffffffffffffffffffff021916908373ffffffffffffffffffffffffffffffffffffffff1602179055506145c56040518060400160405280600b81526020017f6574685f72696e6b65627900000000000000000000000000000000000000000081525061540c565b6001905061481d565b60006145ed73a2998efd205fb9d4b4963afb70778d6354ad3a416132d7565b111561468f5773a2998efd205fb9d4b4963afb70778d6354ad3a41600260006101000a81548173ffffffffffffffffffffffffffffffffffffffff021916908373ffffffffffffffffffffffffffffffffffffffff1602179055506146866040518060400160405280600a81526020017f6574685f676f65726c690000000000000000000000000000000000000000000081525061540c565b6001905061481d565b60006146ae736f485c8bf6fc43ea212e93bbf8ce046c7f1cb4756132d7565b111561471257736f485c8bf6fc43ea212e93bbf8ce046c7f1cb475600260006101000a81548173ffffffffffffffffffffffffffffffffffffffff021916908373ffffffffffffffffffffffffffffffffffffffff1602179055506001905061481d565b60006147317320e12a1f859b3feae5fb2a0a32c18f5a65555bbf6132d7565b1115614795577320e12a1f859b3feae5fb2a0a32c18f5a65555bbf600260006101000a81548173ffffffffffffffffffffffffffffffffffffffff021916908373ffffffffffffffffffffffffffffffffffffffff1602179055506001905061481d565b60006147b47351efaf4c8b3c9afbd5ab9f4bbc82784ab6ef8faa6132d7565b1115614818577351efaf4c8b3c9afbd5ab9f4bbc82784ab6ef8faa600260006101000a81548173ffffffffffffffffffffffffffffffffffffffff021916908373ffffffffffffffffffffffffffffffffffffffff1602179055506001905061481d565b600090505b90565b600080600190508284511461483457600080fd5b60008090505b838110156148c45784818151811061484e57fe5b602001015160f81c60f81b7effffffffffffffffffffffffffffffffffffffffffffffffffffffffffffff191686826020811061488757fe5b1a60f81b7effffffffffffffffffffffffffffffffffffffffffffffffffffffffffffff1916146148b757600091505b808060010191505061483a565b50809150509392505050565b6000806000806000606060206040519080825280601f01601f19166020018201604052801561490e5781602001600182028038833980820191505090505b509050600060208960038151811061492257fe5b602001015160f81c60f81b60f81c60ff1603600401905061494889826020856000613e76565b9150606060206040519080825280601f01601f1916602001820160405280156149805781602001600182028038833980820191505090505b5090506022820191506149bc8a60208c600186038151811061499e57fe5b602001015160f81c60f81b60f81c60ff160384016020846000613e76565b905060208301519450602081015193506149d98b601b8787615426565b80975081985050508573ffffffffffffffffffffffffffffffffffffffff16898051906020012060001c73ffffffffffffffffffffffffffffffffffffffff161415614a2f576001975050505050505050614a87565b614a3c8b601c8787615426565b80975081985050508573ffffffffffffffffffffffffffffffffffffffff16898051906020012060001c73ffffffffffffffffffffffffffffffffffffffff16149750505050505050505b9392505050565b60008060606002856001860181518110614aa457fe5b602001015160f81c60f81b60f81c60ff16016040519080825280601f01601f191660200182016040528015614ae85781602001600182028038833980820191505090505b509050614afa85858351846000613e76565b506060604080519080825280601f01601f191660200182016040528015614b305781602001600182028038833980820191505090505b509050614b438660046040846000613e76565b50606060626040519080825280601f01601f191660200182016040528015614b7a5781602001600182028038833980820191505090505b509050600160f81b81600081518110614b8f57fe5b60200101907effffffffffffffffffffffffffffffffffffffffffffffffffffffffffffff1916908160001a905350614bd087604188036041846001613e76565b5060606040518060400160405280602081526020017ffd94fa71bc0ba10d39d464d0d8f465efeef0a2764e3887fcc9df41ded20f505c8152509050614c1b8160006020856042613e76565b50614cc46002836040518082805190602001908083835b60208310614c555780518252602082019150602081019050602083039250614c32565b6001836020036101000a038019825116818451168082178552505050505050905001915050602060405180830381855afa158015614c97573d6000803e3d6000fd5b5050506040513d6020811015614cac57600080fd5b810190808051906020019092919050505085856148d0565b945084614cd957600095505050505050614ea0565b6060604051806060016040528060408152602001615a5d604091399050606060426040519080825280601f01601f191660200182016040528015614d2c5781602001600182028038833980820191505090505b50905060fe60f81b81600081518110614d4157fe5b60200101907effffffffffffffffffffffffffffffffffffffffffffffffffffffffffffff1916908160001a905350614d808a60036041846001613e76565b50606060028b604581518110614d9257fe5b602001015160f81c60f81b60f81c60ff16016040519080825280601f01601f191660200182016040528015614dd65781602001600182028038833980820191505090505b509050614de98b60448351846000613e76565b50614e926002836040518082805190602001908083835b60208310614e235780518252602082019150602081019050602083039250614e00565b6001836020036101000a038019825116818451168082178552505050505050905001915050602060405180830381855afa158015614e65573d6000803e3d6000fd5b5050506040513d6020811015614e7a57600080fd5b810190808051906020019092919050505082856148d0565b975087985050505050505050505b92915050565b60008073ffffffffffffffffffffffffffffffffffffffff16600260009054906101000a900473ffffffffffffffffffffffffffffffffffffffff1673ffffffffffffffffffffffffffffffffffffffff161480614f2e57506000614f2c600260009054906101000a900473ffffffffffffffffffffffffffffffffffffffff166132d7565b145b15614f3f57614f3d60006132e2565b505b600260009054906101000a900473ffffffffffffffffffffffffffffffffffffffff1673ffffffffffffffffffffffffffffffffffffffff166338cc48316040518163ffffffff1660e01b8152600401602060405180830381600087803b158015614fa957600080fd5b505af1158015614fbd573d6000803e3d6000fd5b505050506040513d6020811015614fd357600080fd5b810190808051906020019092919050505073ffffffffffffffffffffffffffffffffffffffff16600160009054906101000a900473ffffffffffffffffffffffffffffffffffffffff1673ffffffffffffffffffffffffffffffffffffffff161461511e57600260009054906101000a900473ffffffffffffffffffffffffffffffffffffffff1673ffffffffffffffffffffffffffffffffffffffff166338cc48316040518163ffffffff1660e01b8152600401602060405180830381600087803b1580156150a257600080fd5b505af11580156150b6573d6000803e3d6000fd5b505050506040513d60208110156150cc57600080fd5b8101908080519060200190929190505050600160006101000a81548173ffffffffffffffffffffffffffffffffffffffff021916908373ffffffffffffffffffffffffffffffffffffffff1602179055505b6000600160009054906101000a900473ffffffffffffffffffffffffffffffffffffffff1673ffffffffffffffffffffffffffffffffffffffff16632ef3accc86856040518363ffffffff1660e01b81526004018080602001838152602001828103825284818151815260200191508051906020019080838360005b838110156151b557808201518184015260208101905061519a565b50505050905090810190601f1680156151e25780820380516001836020036101000a031916815260200191505b509350505050602060405180830381600087803b15801561520257600080fd5b505af1158015615216573d6000803e3d6000fd5b505050506040513d602081101561522c57600080fd5b81019080805190602001909291905050509050823a02670de0b6b3a76400000181111561525f576000801b915050615405565b606061526a8561546a565b9050600160009054906101000a900473ffffffffffffffffffffffffffffffffffffffff1673ffffffffffffffffffffffffffffffffffffffff1663c55c1cb68360008985896040518663ffffffff1660e01b8152600401808581526020018060200180602001848152602001838103835286818151815260200191508051906020019080838360005b8381101561530f5780820151818401526020810190506152f4565b50505050905090810190601f16801561533c5780820380516001836020036101000a031916815260200191505b50838103825285818151815260200191508051906020019080838360005b8381101561537557808201518184015260208101905061535a565b50505050905090810190601f1680156153a25780820380516001836020036101000a031916815260200191505b5096505050505050506020604051808303818588803b1580156153c457600080fd5b505af11580156153d8573d6000803e3d6000fd5b50505050506040513d60208110156153ef57600080fd5b8101908080519060200190929190505050925050505b9392505050565b806003908051906020019061542292919061595a565b5050565b60008060008060405188815287602082015286604082015285606082015260208160808360006001610bb8f192508051915050818193509350505094509492505050565b60606154746154ea565b61547c6159da565b615488816104006154f6565b61549181615540565b60008090505b83518110156154d3576154c68482815181106154af57fe5b60200260200101518361554e90919063ffffffff16565b8080600101915050615497565b506154dd81615573565b8060000151915050919050565b60405180590338823950565b600081905060006020828161550757fe5b0614615520576020818161551757fe5b06602003810190505b808360200181815250506040518084526000815281810160405250505050565b61554b816004615581565b50565b61555b82600283516155a2565b61556e81836156e290919063ffffffff16565b505050565b61557e816007615581565b50565b61559e601f60058360ff16901b178361578d90919063ffffffff16565b5050565b601781116155ce576155c98160058460ff16901b60ff16178461578d90919063ffffffff16565b6156dd565b60ff811161560f576155f3601860058460ff16901b178461578d90919063ffffffff16565b615609816001856157cd9092919063ffffffff16565b506156dc565b61ffff811161565157615635601960058460ff16901b178461578d90919063ffffffff16565b61564b816002856157cd9092919063ffffffff16565b506156db565b63ffffffff811161569557615679601a60058460ff16901b178461578d90919063ffffffff16565b61568f816004856157cd9092919063ffffffff16565b506156da565b67ffffffffffffffff81116156d9576156c1601b60058460ff16901b178461578d90919063ffffffff16565b6156d7816008856157cd9092919063ffffffff16565b505b5b5b5b5b505050565b6156ea6159da565b8260200151836000015151835101111561571a5761571983600261571386602001518651615834565b02615850565b5b60008060008451905085518051602081830101945086518101825260208701935050505b60208110615761578151835260208301925060208201915060208103905061573e565b60006001826020036101000a039050801983511681855116818117865250508694505050505092915050565b816020015160018360000151510111156157b3576157b2826002846020015102615850565b5b815180516020818301018381536001820183525050505050565b6157d56159da565b836020015184600001515183011115615803576158028460026157fc876020015186615834565b02615850565b5b60006001836101000a0390508451805184818301018684198251161781528582018352505050849150509392505050565b6000818311156158465782905061584a565b8190505b92915050565b60608260000151905061586383836154f6565b61586d83826156e2565b50505050565b60405180608001604052806004905b60608152602001906001900390816158825790505090565b6040518060c001604052806000815260200160008152602001600081526020016000815260200160008152602001606081525090565b828054828255906000526020600020908101928215615949579160200282015b828111156159485782518260006101000a81548173ffffffffffffffffffffffffffffffffffffffff021916908373ffffffffffffffffffffffffffffffffffffffff160217905550916020019190600101906158f0565b5b50905061595691906159f4565b5090565b828054600181600116156101000203166002900490600052602060002090601f016020900481019282601f1061599b57805160ff19168380011785556159c9565b828001600101855582156159c9579182015b828111156159c85782518255916020019190600101906159ad565b5b5090506159d69190615a37565b5090565b604051806040016040528060608152602001600081525090565b615a3491905b80821115615a3057600081816101000a81549073ffffffffffffffffffffffffffffffffffffffff0219169055506001016159fa565b5090565b90565b615a5991905b80821115615a55576000816000905550600101615a3d565b5090565b9056fe7fb956469c5c9b89840d55b43537e66a98dd4811ea0a27224272c2e5622911e8537a2f8e86a46baec82864e98dd01e9ccc2f8bc5dfc9cbe5a91a290498dd96e4a265627a7a7231582096b6abe7aad354a1405965314d4c9df1d7320257b46c0db23e052f110ccaf6fb64736f6c634300050b0032",
  "source": "pragma solidity ^0.5.11;\r\n\r\nimport \"./OraclizeContracts.sol\";\r\n\r\n\r\ncontract Ownable {\r\n    address payable public  owner;\r\n\r\n    event OwnershipRenounced(address indexed previousOwner);\r\n    event OwnershipTransferred(\r\n        address indexed previousOwner,\r\n        address indexed newOwner\r\n    );\r\n\r\n    constructor() public {\r\n        owner = msg.sender;\r\n    }\r\n\r\n    modifier onlyOwner() {\r\n        require(msg.sender == owner, \"Permission denied!\");\r\n        _;\r\n    }\r\n\r\n    function transferOwnership(address payable newOwner ) public onlyOwner {\r\n        require(newOwner != address(0), \"Address is not valid!\");\r\n        emit OwnershipTransferred(owner, newOwner);\r\n        owner = newOwner;\r\n    }\r\n}\r\n\r\n\r\ncontract Enableble is Ownable{\r\n\r\n    bool enable;\r\n\r\n    modifier isWorking() {\r\n        require(enable, \"Not working!\");\r\n        _;\r\n    }\r\n\r\n    function setEnable (bool newStatus) public onlyOwner {\r\n        enable = newStatus;\r\n    }\r\n}\r\n\r\n\r\ncontract LiveDouble is Enableble, usingOraclize {\r\n\r\n\r\n    \r\n    // TODO: must be false at testnet or mainnet\r\n    bool public development=true;\r\n\r\n    uint256 public oraclizeGasLimit = 300000;\r\n    uint256 public minRounDuration = 1;\r\n    uint256 public minDeposit = 1;\r\n    address payable public commissionWalet;\r\n    uint256 public commissionPercent = 100;//100 = 10%, 150=15%\r\n    uint256 public percentMax = 1000;\r\n    uint256 public ticketPrice = 0.001 ether;\r\n    uint256 public maxTotalJp = 0;\r\n    bool public drawInProcess = false;\r\n\r\n    struct User {\r\n        bool isExist;\r\n        uint256 balance;\r\n        uint256 depositTotal;\r\n        uint256 winTotal;\r\n        uint256 gamesTotal;\r\n    }\r\n    mapping(address => User) public userAccounts;\r\n    address[] users;\r\n\r\n    struct Round {\r\n        uint256 ticketsTotal;\r\n        uint256 ticketPrice;\r\n        uint256 startBlock;\r\n        uint256 endBlock;\r\n        uint256 winnerIndex;\r\n        address payable[]  users;\r\n        mapping(address => uint256)  tickets;\r\n    }\r\n    uint256 public currentRoundNumber;\r\n    Round[] public rounds;\r\n\r\n    event Deposit(address indexed player, uint value, uint256 tickets, uint deposited);\r\n    event Withdraw(address indexed player, uint value);\r\n    event StartDraw(uint256 roundNumber);\r\n    event EndDraw(uint256 roundNumber, address payable winner, uint prize);\r\n\r\n    event Error(string message);\r\n\r\n    modifier isOpen() {\r\n        require(drawInProcess == false, \"Game is drawing!\");\r\n        _;\r\n    }\r\n\r\n    constructor (bool isDevelopmentNetwork) payable public{\r\n        development = isDevelopmentNetwork;\r\n        commissionWalet = msg.sender;\r\n        //      1\r\n        currentRoundNumber -= 1;\r\n        createRound();\r\n        enable = true;\r\n    }\r\n\r\n    function () external payable {}\r\n\r\n    //    \r\n    function deposit() public isWorking isOpen payable {\r\n        Round storage currentRound = rounds[currentRoundNumber];\r\n\r\n        // -   \r\n        uint ticketToPurchaze = msg.value / currentRound.ticketPrice;\r\n        //    \r\n        uint unusedDeposit = msg.value % currentRound.ticketPrice;\r\n\r\n        User storage user = userAccounts[msg.sender];\r\n        if (!user.isExist){\r\n            // \r\n            user.isExist = true;\r\n            users.push(msg.sender);\r\n        }\r\n        //     \r\n        user.balance += unusedDeposit;\r\n        user.depositTotal += msg.value;\r\n\r\n        if (ticketToPurchaze>0) {\r\n            currentRound.ticketsTotal += ticketToPurchaze;\r\n            //      ,    \r\n            if (currentRound.tickets[msg.sender]==0){\r\n                currentRound.users.push(msg.sender);\r\n                user.gamesTotal++;\r\n            }\r\n            //  -  \r\n            currentRound.tickets[msg.sender] += ticketToPurchaze;\r\n\r\n            emit Deposit(msg.sender, msg.value, ticketToPurchaze, ticketToPurchaze*currentRound.ticketPrice);\r\n\r\n            startDraw();\r\n        }\r\n\r\n    }\r\n\r\n    //    ,     \r\n    //   ,         \r\n    function startDraw() public isWorking {\r\n        if (block.number - rounds[currentRoundNumber].startBlock > minRounDuration && rounds[currentRoundNumber].users.length>=2){\r\n            drawInProcess = true;\r\n            rounds[currentRoundNumber].endBlock = block.number;\r\n\r\n            if (!development){\r\n                callOracleRandom();\r\n            }\r\n            emit StartDraw(currentRoundNumber);\r\n        }\r\n    }\r\n\r\n    //      \r\n    function callOracleRandom() internal {\r\n        oraclize_setProof(proofType_Ledger); // sets the Ledger authenticity proof\r\n        uint N = 16; // number of random bytes we want the datasource to return\r\n        uint delay = 0; // number of seconds to wait before the execution takes place\r\n        // this function internally generates the correct oraclize_query and returns its queryId\r\n        oraclize_newRandomDSQuery(delay, N, oraclizeGasLimit);\r\n    }\r\n\r\n    //  ,     ,        \r\n    function endDraw(uint256 seed) internal {\r\n        //     \r\n        require(drawInProcess == true, \"Draw not in process!\");\r\n\r\n        Round storage currentRound = rounds[currentRoundNumber];\r\n        uint randomTicket = seed % currentRound.ticketsTotal;\r\n        uint256 ticketsCounter = 0;\r\n        //       \r\n        for (uint256 i = 0; i < currentRound.users.length; i++){\r\n            if (randomTicket < currentRound.tickets[currentRound.users[i]] + ticketsCounter){\r\n                currentRound.winnerIndex = i;\r\n                break;\r\n            }\r\n            ticketsCounter += currentRound.tickets[currentRound.users[i]];\r\n        }\r\n\r\n        address payable winnerAddress = currentRound.users[currentRound.winnerIndex];\r\n        uint256 totalPrize = currentRound.ticketsTotal * currentRound.ticketPrice;\r\n        uint256 commissionValue = totalPrize * commissionPercent / percentMax;\r\n        uint256 winnerPrize = totalPrize - commissionValue;\r\n\r\n        if (totalPrize>maxTotalJp) {\r\n            maxTotalJp = totalPrize;\r\n        }\r\n        userAccounts[winnerAddress].winTotal += totalPrize;\r\n        //   ,  ,  -  \r\n        if (!winnerAddress.send(winnerPrize)){\r\n            userAccounts[winnerAddress].balance += winnerPrize;\r\n        }\r\n        if (!commissionWalet.send(commissionValue)){\r\n            userAccounts[commissionWalet].balance += commissionValue;\r\n        }\r\n        emit EndDraw(currentRoundNumber, winnerAddress, totalPrize);\r\n        //  \r\n        createRound();\r\n        //   \r\n        drawInProcess = false;\r\n\r\n    }\r\n\r\n    //    \r\n    function __callback(bytes32 _queryId, string memory  _result, bytes memory _proof) public {\r\n        require (msg.sender == oraclize_cbAddress(), \"oraclize only\");\r\n        if (oraclize_randomDS_proofVerify__returnCode(_queryId, _result, _proof) != 0) {\r\n            // the proof verification has failed, do we need to take any action here? (depends on the use case)\r\n            emit Error(\"proof verification has failed\");\r\n        } else {\r\n            endDraw(uint(keccak256(abi.encode(_result))));\r\n        }\r\n    }\r\n\r\n    function createRound() internal {\r\n        currentRoundNumber += 1;\r\n        Round memory newRound = Round(0,0,0,0,0, new address payable[](0));\r\n        newRound.startBlock = block.number;\r\n        newRound.ticketPrice = ticketPrice;\r\n        rounds.push(newRound);\r\n    }\r\n\r\n    //     \r\n    function withdraw() public isWorking {\r\n        uint256 value = userAccounts[msg.sender].balance;\r\n        require(address(this).balance>=value, \"TODO: oom label\");\r\n        userAccounts[msg.sender].balance = 0;\r\n        msg.sender.transfer(value);\r\n    }\r\n\r\n    //   ----------------------\r\n    //      \r\n    function ownerEndDraw(uint256 seed) public onlyOwner {\r\n        endDraw(seed);\r\n    }\r\n\r\n    function ownerWithdraw(uint256 value) public onlyOwner {\r\n        require(address(this).balance>=value, \"TODO: oom label\");\r\n        owner.transfer(value);\r\n    }\r\n\r\n    function setMinRounDuration(uint256 newValue) public onlyOwner {\r\n        minRounDuration = newValue;\r\n    }\r\n\r\n    function setMinDeposit(uint256 newValue) public onlyOwner {\r\n        minDeposit = newValue;\r\n    }\r\n\r\n    function setCommissionWalet(address payable newValue) public onlyOwner {\r\n        commissionWalet = newValue;\r\n    }\r\n\r\n    function setCommissionPercent(uint256 newValue) public onlyOwner {\r\n        commissionPercent = newValue;\r\n    }\r\n\r\n    function setOraclizeGasLimit(uint256 newValue) public onlyOwner {\r\n        oraclizeGasLimit = newValue;\r\n    }\r\n\r\n    //       (     )\r\n    function setTicketPrice(uint256 newValue) public onlyOwner {\r\n        ticketPrice = newValue;\r\n    }\r\n\r\n    function getPlayerTicketsCount(address player, uint256 roundNumber) public view returns(uint256) {\r\n        return rounds[roundNumber].tickets[player];\r\n    }\r\n\r\n    function getTotalPlayerCount() public view returns(uint256) {\r\n        return users.length;\r\n    }\r\n\r\n    function getCurrentJp() public view returns(uint256) {\r\n        //currentRound.ticketsTotal * currentRound.ticketPrice\r\n        return rounds[currentRoundNumber].ticketsTotal*rounds[currentRoundNumber].ticketPrice;\r\n    }\r\n}",
  "sourcePath": "D:/works/VCSP/LiveDoubleContract/contracts/LiveDouble.sol",
  "compiler": {
    "name": "solc",
    "version": "0.5.11+commit.c082d0b4.Emscripten.clang"
  },
  "schemaVersion": "3.0.21",
  "updatedAt": "2020-01-29T10:18:52.246Z",
  "devdoc": {
    "methods": {
      "__callback(bytes32,string)": {
        "details": "The following `__callback` functions are just placeholders ideally\r     meant to be defined in child contract when proofs are used.\r     The function bodies simply silence compiler warnings.\r"
      }
    }
  },
  "userdoc": {
    "methods": {}
  }
}